{
  "contractName": "FishdomMarket",
  "abi": [
    {
      "inputs": [
        {
          "internalType": "address",
          "name": "token_",
          "type": "address"
        },
        {
          "internalType": "address",
          "name": "nft_",
          "type": "address"
        }
      ],
      "stateMutability": "nonpayable",
      "type": "constructor"
    },
    {
      "anonymous": false,
      "inputs": [
        {
          "indexed": true,
          "internalType": "uint256",
          "name": "itemId",
          "type": "uint256"
        },
        {
          "indexed": true,
          "internalType": "uint256",
          "name": "tokenId",
          "type": "uint256"
        },
        {
          "indexed": false,
          "internalType": "uint256",
          "name": "price",
          "type": "uint256"
        },
        {
          "indexed": false,
          "internalType": "address",
          "name": "seller",
          "type": "address"
        },
        {
          "indexed": false,
          "internalType": "address",
          "name": "buyer",
          "type": "address"
        }
      ],
      "name": "BuyMarketItem",
      "type": "event"
    },
    {
      "anonymous": false,
      "inputs": [
        {
          "indexed": true,
          "internalType": "uint256",
          "name": "itemId",
          "type": "uint256"
        },
        {
          "indexed": true,
          "internalType": "uint256",
          "name": "tokenId",
          "type": "uint256"
        },
        {
          "indexed": false,
          "internalType": "address",
          "name": "seller",
          "type": "address"
        },
        {
          "indexed": false,
          "internalType": "uint256",
          "name": "price",
          "type": "uint256"
        }
      ],
      "name": "MarketItemCreated",
      "type": "event"
    },
    {
      "anonymous": false,
      "inputs": [
        {
          "indexed": true,
          "internalType": "uint256",
          "name": "itemId",
          "type": "uint256"
        },
        {
          "indexed": true,
          "internalType": "uint256",
          "name": "tokenId",
          "type": "uint256"
        },
        {
          "indexed": false,
          "internalType": "address",
          "name": "owner",
          "type": "address"
        }
      ],
      "name": "WithdrawItem",
      "type": "event"
    },
    {
      "inputs": [
        {
          "internalType": "address",
          "name": "",
          "type": "address"
        },
        {
          "internalType": "address",
          "name": "",
          "type": "address"
        },
        {
          "internalType": "uint256",
          "name": "",
          "type": "uint256"
        },
        {
          "internalType": "bytes",
          "name": "",
          "type": "bytes"
        }
      ],
      "name": "onERC721Received",
      "outputs": [
        {
          "internalType": "bytes4",
          "name": "",
          "type": "bytes4"
        }
      ],
      "stateMutability": "nonpayable",
      "type": "function"
    },
    {
      "inputs": [
        {
          "internalType": "uint256",
          "name": "tokenId",
          "type": "uint256"
        },
        {
          "internalType": "uint256",
          "name": "price",
          "type": "uint256"
        }
      ],
      "name": "createMarketItem",
      "outputs": [],
      "stateMutability": "nonpayable",
      "type": "function"
    },
    {
      "inputs": [
        {
          "internalType": "uint256",
          "name": "itemIndex",
          "type": "uint256"
        }
      ],
      "name": "buyMarketItem",
      "outputs": [],
      "stateMutability": "payable",
      "type": "function",
      "payable": true
    },
    {
      "inputs": [
        {
          "internalType": "uint256",
          "name": "itemId",
          "type": "uint256"
        }
      ],
      "name": "withdrawNFT",
      "outputs": [],
      "stateMutability": "nonpayable",
      "type": "function"
    },
    {
      "inputs": [
        {
          "internalType": "address",
          "name": "newOwner",
          "type": "address"
        }
      ],
      "name": "transferOwnership",
      "outputs": [],
      "stateMutability": "nonpayable",
      "type": "function"
    }
  ],
  "bytecode": "0x60806040523480156200001157600080fd5b50604051620015fc380380620015fc83398181016040528101906200003791906200016c565b33600160006101000a81548173ffffffffffffffffffffffffffffffffffffffff021916908373ffffffffffffffffffffffffffffffffffffffff16021790555081600360006101000a81548173ffffffffffffffffffffffffffffffffffffffff021916908373ffffffffffffffffffffffffffffffffffffffff16021790555080600260006101000a81548173ffffffffffffffffffffffffffffffffffffffff021916908373ffffffffffffffffffffffffffffffffffffffff1602179055505050620001b3565b600080fd5b600073ffffffffffffffffffffffffffffffffffffffff82169050919050565b6000620001348262000107565b9050919050565b620001468162000127565b81146200015257600080fd5b50565b60008151905062000166816200013b565b92915050565b6000806040838503121562000186576200018562000102565b5b6000620001968582860162000155565b9250506020620001a98582860162000155565b9150509250929050565b61143980620001c36000396000f3fe60806040526004361061004a5760003560e01c8063023245d71461004f578063150b7a0214610078578063351901c3146100b5578063361c1995146100d1578063f2fde38b146100fa575b600080fd5b34801561005b57600080fd5b5061007660048036038101906100719190610b75565b610123565b005b34801561008457600080fd5b5061009f600480360381019061009a9190610d46565b610390565b6040516100ac9190610e04565b60405180910390f35b6100cf60048036038101906100ca9190610b75565b6103a4565b005b3480156100dd57600080fd5b506100f860048036038101906100f39190610e1f565b610877565b005b34801561010657600080fd5b50610121600480360381019061011c9190610e5f565b610a55565b005b60006004600083815260200190815260200160002060405180608001604052908160008201548152602001600182015481526020016002820160009054906101000a900473ffffffffffffffffffffffffffffffffffffffff1673ffffffffffffffffffffffffffffffffffffffff1673ffffffffffffffffffffffffffffffffffffffff16815260200160038201548152505090503373ffffffffffffffffffffffffffffffffffffffff166004600084815260200190815260200160002060020160009054906101000a900473ffffffffffffffffffffffffffffffffffffffff1673ffffffffffffffffffffffffffffffffffffffff161461025d576040517f08c379a000000000000000000000000000000000000000000000000000000000815260040161025490610ee9565b60405180910390fd5b6004600083815260200190815260200160002060008082016000905560018201600090556002820160006101000a81549073ffffffffffffffffffffffffffffffffffffffff021916905560038201600090555050600260009054906101000a900473ffffffffffffffffffffffffffffffffffffffff1673ffffffffffffffffffffffffffffffffffffffff166323b872dd303384602001516040518463ffffffff1660e01b815260040161031593929190610f27565b600060405180830381600087803b15801561032f57600080fd5b505af1158015610343573d6000803e3d6000fd5b50505050806020015181600001517ff14a9cbe01fc845847526300acd057416c171aa3034b4ea54f4f1a412c284a7183604001516040516103849190610f5e565b60405180910390a35050565b600063150b7a0260e01b9050949350505050565b60006004600083815260200190815260200160002060405180608001604052908160008201548152602001600182015481526020016002820160009054906101000a900473ffffffffffffffffffffffffffffffffffffffff1673ffffffffffffffffffffffffffffffffffffffff1673ffffffffffffffffffffffffffffffffffffffff16815260200160038201548152505090503373ffffffffffffffffffffffffffffffffffffffff16816040015173ffffffffffffffffffffffffffffffffffffffff1614156104ad576040517f08c379a00000000000000000000000000000000000000000000000000000000081526004016104a490610fc5565b60405180910390fd5b6000816060015190506000600360009054906101000a900473ffffffffffffffffffffffffffffffffffffffff1673ffffffffffffffffffffffffffffffffffffffff1663dd62ed3e33306040518363ffffffff1660e01b8152600401610515929190610fe5565b602060405180830381865afa158015610532573d6000803e3d6000fd5b505050506040513d601f19601f820116820180604052508101906105569190611023565b90508181101561059b576040517f08c379a0000000000000000000000000000000000000000000000000000000008152600401610592906110e8565b60405180910390fd5b600060646005846105ac9190611137565b6105b691906111c0565b90506000846020015190506000600360009054906101000a900473ffffffffffffffffffffffffffffffffffffffff1673ffffffffffffffffffffffffffffffffffffffff166323b872dd338860400151868961061391906111f1565b6040518463ffffffff1660e01b815260040161063193929190610f27565b6020604051808303816000875af1158015610650573d6000803e3d6000fd5b505050506040513d601f19601f82011682018060405250810190610674919061125d565b9050806106b6576040517f08c379a00000000000000000000000000000000000000000000000000000000081526004016106ad906112fc565b60405180910390fd5b600360009054906101000a900473ffffffffffffffffffffffffffffffffffffffff1673ffffffffffffffffffffffffffffffffffffffff166342966c68846040518263ffffffff1660e01b8152600401610711919061131c565b600060405180830381600087803b15801561072b57600080fd5b505af115801561073f573d6000803e3d6000fd5b505050506004600088815260200190815260200160002060008082016000905560018201600090556002820160006101000a81549073ffffffffffffffffffffffffffffffffffffffff021916905560038201600090555050600260009054906101000a900473ffffffffffffffffffffffffffffffffffffffff1673ffffffffffffffffffffffffffffffffffffffff166323b872dd3033856040518463ffffffff1660e01b81526004016107f793929190610f27565b600060405180830381600087803b15801561081157600080fd5b505af1158015610825573d6000803e3d6000fd5b505050508186600001517f86b0e3b3db9ee39518dd8833acf9b575af93ec2a7828d1d027f5405903edbb978789604001513360405161086693929190611337565b60405180910390a350505050505050565b600081116108ba576040517f08c379a00000000000000000000000000000000000000000000000000000000081526004016108b1906113ba565b60405180910390fd5b600260009054906101000a900473ffffffffffffffffffffffffffffffffffffffff1673ffffffffffffffffffffffffffffffffffffffff166323b872dd3330856040518463ffffffff1660e01b815260040161091993929190610f27565b600060405180830381600087803b15801561093357600080fd5b505af1158015610947573d6000803e3d6000fd5b505050506109556000610b07565b60006109616000610b1d565b905060405180608001604052808281526020018481526020013373ffffffffffffffffffffffffffffffffffffffff1681526020018381525060046000838152602001908152602001600020600082015181600001556020820151816001015560408201518160020160006101000a81548173ffffffffffffffffffffffffffffffffffffffff021916908373ffffffffffffffffffffffffffffffffffffffff1602179055506060820151816003015590505082817fdc9d79b0fe2198ceff7f76af9e05e2eacb3af07f0d4c913397475ab8bac771b83385604051610a489291906113da565b60405180910390a3505050565b3373ffffffffffffffffffffffffffffffffffffffff163373ffffffffffffffffffffffffffffffffffffffff1614610ac3576040517f08c379a0000000000000000000000000000000000000000000000000000000008152600401610aba90610ee9565b60405180910390fd5b80600160006101000a81548173ffffffffffffffffffffffffffffffffffffffff021916908373ffffffffffffffffffffffffffffffffffffffff16021790555050565b6001816000016000828254019250508190555050565b600081600001549050919050565b6000604051905090565b600080fd5b600080fd5b6000819050919050565b610b5281610b3f565b8114610b5d57600080fd5b50565b600081359050610b6f81610b49565b92915050565b600060208284031215610b8b57610b8a610b35565b5b6000610b9984828501610b60565b91505092915050565b600073ffffffffffffffffffffffffffffffffffffffff82169050919050565b6000610bcd82610ba2565b9050919050565b610bdd81610bc2565b8114610be857600080fd5b50565b600081359050610bfa81610bd4565b92915050565b600080fd5b600080fd5b6000601f19601f8301169050919050565b7f4e487b7100000000000000000000000000000000000000000000000000000000600052604160045260246000fd5b610c5382610c0a565b810181811067ffffffffffffffff82111715610c7257610c71610c1b565b5b80604052505050565b6000610c85610b2b565b9050610c918282610c4a565b919050565b600067ffffffffffffffff821115610cb157610cb0610c1b565b5b610cba82610c0a565b9050602081019050919050565b82818337600083830152505050565b6000610ce9610ce484610c96565b610c7b565b905082815260208101848484011115610d0557610d04610c05565b5b610d10848285610cc7565b509392505050565b600082601f830112610d2d57610d2c610c00565b5b8135610d3d848260208601610cd6565b91505092915050565b60008060008060808587031215610d6057610d5f610b35565b5b6000610d6e87828801610beb565b9450506020610d7f87828801610beb565b9350506040610d9087828801610b60565b925050606085013567ffffffffffffffff811115610db157610db0610b3a565b5b610dbd87828801610d18565b91505092959194509250565b60007fffffffff0000000000000000000000000000000000000000000000000000000082169050919050565b610dfe81610dc9565b82525050565b6000602082019050610e196000830184610df5565b92915050565b60008060408385031215610e3657610e35610b35565b5b6000610e4485828601610b60565b9250506020610e5585828601610b60565b9150509250929050565b600060208284031215610e7557610e74610b35565b5b6000610e8384828501610beb565b91505092915050565b600082825260208201905092915050565b7f46697368646f6d4d61726b65743a204e6f74206f776e65720000000000000000600082015250565b6000610ed3601883610e8c565b9150610ede82610e9d565b602082019050919050565b60006020820190508181036000830152610f0281610ec6565b9050919050565b610f1281610bc2565b82525050565b610f2181610b3f565b82525050565b6000606082019050610f3c6000830186610f09565b610f496020830185610f09565b610f566040830184610f18565b949350505050565b6000602082019050610f736000830184610f09565b92915050565b7f43616e206e6f742062757920796f7572206974656d0000000000000000000000600082015250565b6000610faf601583610e8c565b9150610fba82610f79565b602082019050919050565b60006020820190508181036000830152610fde81610fa2565b9050919050565b6000604082019050610ffa6000830185610f09565b6110076020830184610f09565b9392505050565b60008151905061101d81610b49565b92915050565b60006020828403121561103957611038610b35565b5b60006110478482850161100e565b91505092915050565b7f46697368646f6d4d61726b65743a20506c65617365207375626d69742074686560008201527f2061736b696e6720707269636520696e206f7264657220746f20636f6d706c6560208201527f7465207468652070757263686173650000000000000000000000000000000000604082015250565b60006110d2604f83610e8c565b91506110dd82611050565b606082019050919050565b60006020820190508181036000830152611101816110c5565b9050919050565b7f4e487b7100000000000000000000000000000000000000000000000000000000600052601160045260246000fd5b600061114282610b3f565b915061114d83610b3f565b9250817fffffffffffffffffffffffffffffffffffffffffffffffffffffffffffffffff048311821515161561118657611185611108565b5b828202905092915050565b7f4e487b7100000000000000000000000000000000000000000000000000000000600052601260045260246000fd5b60006111cb82610b3f565b91506111d683610b3f565b9250826111e6576111e5611191565b5b828204905092915050565b60006111fc82610b3f565b915061120783610b3f565b92508282101561121a57611219611108565b5b828203905092915050565b60008115159050919050565b61123a81611225565b811461124557600080fd5b50565b60008151905061125781611231565b92915050565b60006020828403121561127357611272610b35565b5b600061128184828501611248565b91505092915050565b7f46697368646f6d4d61726b65743a205472616e736665722046697368646f6d5460008201527f6f6b656e20746f2073656c6c6572206661696c65640000000000000000000000602082015250565b60006112e6603583610e8c565b91506112f18261128a565b604082019050919050565b60006020820190508181036000830152611315816112d9565b9050919050565b60006020820190506113316000830184610f18565b92915050565b600060608201905061134c6000830186610f18565b6113596020830185610f09565b6113666040830184610f09565b949350505050565b7f5072696365206d757374206265206174206c6561737420312077656900000000600082015250565b60006113a4601c83610e8c565b91506113af8261136e565b602082019050919050565b600060208201905081810360008301526113d381611397565b9050919050565b60006040820190506113ef6000830185610f09565b6113fc6020830184610f18565b939250505056fea26469706673582212203d8c0f85a2fc00ca1e861843a9bf95436c48b7fff38ff59fe31f9944ed07759564736f6c634300080b0033",
  "immutableReferences": {},
  "source": "// SPDX-License-Identifier: MIT\r\npragma solidity ^0.8.7;\r\n\r\nimport \"@openzeppelin/contracts/utils/Counters.sol\";\r\nimport \"@openzeppelin/contracts/token/ERC721/IERC721Receiver.sol\";\r\nimport \"@openzeppelin/contracts/token/ERC721/IERC721.sol\";\r\nimport \"./token/IFishdomToken.sol\";\r\n\r\ncontract FishdomMarket is IERC721Receiver {\r\n    using Counters for Counters.Counter;\r\n    Counters.Counter private _itemIds;\r\n    address private _owner;\r\n    IERC721 FishdomNFT;\r\n    IFishdomToken FishdomToken;\r\n\r\n    constructor(address token_, address nft_) {\r\n        _owner = msg.sender;\r\n        FishdomToken = IFishdomToken(token_);\r\n        FishdomNFT = IERC721(nft_);\r\n    }\r\n\r\n    struct MarketItem {\r\n        uint256 itemId;\r\n        uint256 tokenId;\r\n        address seller;\r\n        uint256 price;\r\n    }\r\n\r\n    mapping(uint256 => MarketItem) private idToMarketItem;\r\n\r\n    event MarketItemCreated(\r\n        uint256 indexed itemId,\r\n        uint256 indexed tokenId,\r\n        address seller,\r\n        uint256 price\r\n    );\r\n\r\n    event BuyMarketItem(\r\n        uint256 indexed itemId,\r\n        uint256 indexed tokenId,\r\n        uint256 price,\r\n        address seller,\r\n        address buyer\r\n    );\r\n\r\n    event WithdrawItem(\r\n        uint256 indexed itemId,\r\n        uint256 indexed tokenId,\r\n        address owner\r\n    );\r\n\r\n    /**\r\n     * Always returns `IERC721Receiver.onERC721Received.selector`.\r\n     */\r\n    function onERC721Received(\r\n        address,\r\n        address,\r\n        uint256,\r\n        bytes memory\r\n    ) public virtual override returns (bytes4) {\r\n        return this.onERC721Received.selector;\r\n    }\r\n\r\n    function createMarketItem(uint256 tokenId, uint256 price) external {\r\n        require(price > 0, \"Price must be at least 1 wei\");\r\n        FishdomNFT.transferFrom(msg.sender, address(this), tokenId);\r\n        _itemIds.increment();\r\n        uint256 itemId = _itemIds.current();\r\n        idToMarketItem[itemId] = MarketItem(itemId, tokenId, msg.sender, price);\r\n        emit MarketItemCreated(itemId, tokenId, msg.sender, price);\r\n    }\r\n\r\n    function buyMarketItem(uint256 itemIndex) public payable {\r\n        MarketItem memory currentItem = idToMarketItem[itemIndex];\r\n        require(currentItem.seller != msg.sender, \"Can not buy your item\");\r\n        uint256 totalPrice = currentItem.price;\r\n        uint256 allowance = FishdomToken.allowance(msg.sender, address(this));\r\n        require(\r\n            allowance >= totalPrice,\r\n            \"FishdomMarket: Please submit the asking price in order to complete the purchase\"\r\n        );\r\n        // sell successfully => tax sell 5% of market item's price\r\n        uint256 taxFee = (totalPrice * 5) / 100;\r\n        uint256 tokenId = currentItem.tokenId;\r\n        // send FishdomToken to seller\r\n        bool returnToken = FishdomToken.transferFrom(\r\n            msg.sender,\r\n            currentItem.seller,\r\n            totalPrice - taxFee\r\n        );\r\n        require(\r\n            returnToken,\r\n            \"FishdomMarket: Transfer FishdomToken to seller failed\"\r\n        );\r\n\r\n        FishdomToken.burn(taxFee);\r\n        delete idToMarketItem[itemIndex];\r\n        FishdomNFT.transferFrom(address(this), msg.sender, tokenId);\r\n\r\n        emit BuyMarketItem(\r\n            currentItem.itemId,\r\n            tokenId,\r\n            totalPrice,\r\n            currentItem.seller,\r\n            msg.sender\r\n        );\r\n    }\r\n\r\n    function withdrawNFT(uint256 itemId) external {\r\n        MarketItem memory item = idToMarketItem[itemId];\r\n        require(\r\n            idToMarketItem[itemId].seller == msg.sender,\r\n            \"FishdomMarket: Not owner\"\r\n        );\r\n        delete idToMarketItem[itemId];\r\n\r\n        FishdomNFT.transferFrom(address(this), msg.sender, item.tokenId);\r\n        emit WithdrawItem(item.itemId, item.tokenId, item.seller);\r\n    }\r\n\r\n    /**\r\n     * @dev Transfers ownership of the contract to a new account (`newOwner`).\r\n     * Internal function without access restriction.\r\n     */\r\n    function transferOwnership(address newOwner) external onlyOwner {\r\n        _owner = newOwner;\r\n    }\r\n\r\n    modifier onlyOwner() {\r\n        require(msg.sender == msg.sender, \"FishdomMarket: Not owner\");\r\n        _;\r\n    }\r\n}\r\n",
  "sourcePath": "C:\\Github\\fishdom_defi_blockchain\\contracts\\FishdomMarket.sol",
  "compiler": {
    "name": "solc",
    "version": "0.8.11+commit.d7f03943.Emscripten.clang"
  },
  "schemaVersion": "3.4.7",
  "updatedAt": "2022-09-01T15:14:01.549Z",
  "networkType": "ethereum",
  "devdoc": {
    "kind": "dev",
    "methods": {
      "transferOwnership(address)": {
        "details": "Transfers ownership of the contract to a new account (`newOwner`). Internal function without access restriction."
      }
    },
    "version": 1
  },
  "userdoc": {
    "kind": "user",
    "methods": {
      "onERC721Received(address,address,uint256,bytes)": {
        "notice": "Always returns `IERC721Receiver.onERC721Received.selector`."
      }
    },
    "version": 1
  }
}