{
  "contractName": "FishdomStaking",
  "abi": [
    {
      "inputs": [
        {
          "internalType": "address",
          "name": "token_",
          "type": "address"
        }
      ],
      "stateMutability": "nonpayable",
      "type": "constructor"
    },
    {
      "anonymous": false,
      "inputs": [
        {
          "indexed": true,
          "internalType": "uint256",
          "name": "stakeId",
          "type": "uint256"
        },
        {
          "indexed": true,
          "internalType": "address",
          "name": "owner",
          "type": "address"
        },
        {
          "indexed": true,
          "internalType": "uint256",
          "name": "amount",
          "type": "uint256"
        }
      ],
      "name": "Claimed",
      "type": "event"
    },
    {
      "anonymous": false,
      "inputs": [
        {
          "indexed": true,
          "internalType": "uint256",
          "name": "stakeId",
          "type": "uint256"
        },
        {
          "indexed": true,
          "internalType": "address",
          "name": "owner",
          "type": "address"
        },
        {
          "indexed": false,
          "internalType": "uint256",
          "name": "amount",
          "type": "uint256"
        },
        {
          "indexed": false,
          "internalType": "uint256",
          "name": "duration",
          "type": "uint256"
        },
        {
          "indexed": false,
          "internalType": "uint256",
          "name": "apr",
          "type": "uint256"
        }
      ],
      "name": "Staked",
      "type": "event"
    },
    {
      "anonymous": false,
      "inputs": [
        {
          "indexed": true,
          "internalType": "uint256",
          "name": "stakeId",
          "type": "uint256"
        },
        {
          "indexed": true,
          "internalType": "address",
          "name": "owner",
          "type": "address"
        },
        {
          "indexed": false,
          "internalType": "uint256",
          "name": "claimed",
          "type": "uint256"
        }
      ],
      "name": "Unstaked",
      "type": "event"
    },
    {
      "inputs": [],
      "name": "totalStaked",
      "outputs": [
        {
          "internalType": "uint256",
          "name": "",
          "type": "uint256"
        }
      ],
      "stateMutability": "view",
      "type": "function",
      "constant": true
    },
    {
      "inputs": [],
      "name": "initialize",
      "outputs": [],
      "stateMutability": "nonpayable",
      "type": "function"
    },
    {
      "inputs": [],
      "name": "getListPackage",
      "outputs": [
        {
          "components": [
            {
              "internalType": "uint256",
              "name": "apr",
              "type": "uint256"
            },
            {
              "internalType": "uint256",
              "name": "duration",
              "type": "uint256"
            },
            {
              "internalType": "uint8",
              "name": "id",
              "type": "uint8"
            }
          ],
          "internalType": "struct FishdomStaking.Package[4]",
          "name": "",
          "type": "tuple[4]"
        }
      ],
      "stateMutability": "view",
      "type": "function",
      "constant": true
    },
    {
      "inputs": [
        {
          "internalType": "uint8",
          "name": "_stakingId",
          "type": "uint8"
        },
        {
          "internalType": "uint256",
          "name": "_amount",
          "type": "uint256"
        }
      ],
      "name": "stake",
      "outputs": [],
      "stateMutability": "nonpayable",
      "type": "function"
    },
    {
      "inputs": [
        {
          "internalType": "uint256",
          "name": "_stakingId",
          "type": "uint256"
        }
      ],
      "name": "claim",
      "outputs": [],
      "stateMutability": "nonpayable",
      "type": "function"
    },
    {
      "inputs": [
        {
          "internalType": "uint256",
          "name": "_stakingId",
          "type": "uint256"
        }
      ],
      "name": "unstake",
      "outputs": [],
      "stateMutability": "nonpayable",
      "type": "function"
    },
    {
      "inputs": [
        {
          "internalType": "uint256",
          "name": "stakingId",
          "type": "uint256"
        }
      ],
      "name": "getEarned",
      "outputs": [
        {
          "internalType": "uint256",
          "name": "",
          "type": "uint256"
        }
      ],
      "stateMutability": "view",
      "type": "function",
      "constant": true
    },
    {
      "inputs": [
        {
          "internalType": "address",
          "name": "newOwner",
          "type": "address"
        }
      ],
      "name": "transferOwnership",
      "outputs": [],
      "stateMutability": "nonpayable",
      "type": "function"
    }
  ],
  "bytecode": "0x60806040523480156200001157600080fd5b5060405162001b4838038062001b4883398181016040528101906200003791906200012a565b80600160006101000a81548173ffffffffffffffffffffffffffffffffffffffff021916908373ffffffffffffffffffffffffffffffffffffffff16021790555033600260006101000a81548173ffffffffffffffffffffffffffffffffffffffff021916908373ffffffffffffffffffffffffffffffffffffffff160217905550506200015c565b600080fd5b600073ffffffffffffffffffffffffffffffffffffffff82169050919050565b6000620000f282620000c5565b9050919050565b6200010481620000e5565b81146200011057600080fd5b50565b6000815190506200012481620000f9565b92915050565b600060208284031215620001435762000142620000c0565b5b6000620001538482850162000113565b91505092915050565b6119dc806200016c6000396000f3fe608060405234801561001057600080fd5b50600436106100885760003560e01c8063a96e588f1161005b578063a96e588f146100ed578063dd752e551461010b578063e938750414610127578063f2fde38b1461015757610088565b80632e17de781461008d578063379607f5146100a95780638129fc1c146100c5578063817b1cd2146100cf575b600080fd5b6100a760048036038101906100a291906111c8565b610173565b005b6100c360048036038101906100be91906111c8565b6104c8565b005b6100cd610841565b005b6100d7610abb565b6040516100e49190611204565b60405180910390f35b6100f5610ac1565b6040516101029190611328565b60405180910390f35b61012560048036038101906101209190611370565b610b43565b005b610141600480360381019061013c91906111c8565b610e9b565b60405161014e9190611204565b60405180910390f35b610171600480360381019061016c919061140e565b610eaf565b005b6000600382815481106101895761018861143b565b5b90600052602060002090600602016040518060c0016040529081600082015481526020016001820160009054906101000a900473ffffffffffffffffffffffffffffffffffffffff1673ffffffffffffffffffffffffffffffffffffffff1673ffffffffffffffffffffffffffffffffffffffff16815260200160028201548152602001600382015481526020016004820154815260200160058201548152505090506000816080015114610273576040517f08c379a000000000000000000000000000000000000000000000000000000000815260040161026a906114ed565b60405180910390fd5b806020015173ffffffffffffffffffffffffffffffffffffffff163373ffffffffffffffffffffffffffffffffffffffff16146102e5576040517f08c379a00000000000000000000000000000000000000000000000000000000081526004016102dc90611559565b60405180910390fd5b60006102f2836001610f83565b9050816060015160008082825461030991906115a8565b92505081905550600383815481106103245761032361143b565b5b90600052602060002090600602016000808201600090556001820160006101000a81549073ffffffffffffffffffffffffffffffffffffffff0219169055600282016000905560038201600090556004820160009055600582016000905550503373ffffffffffffffffffffffffffffffffffffffff16837f37375b03d8924bd8f076f11f8411b9962aa5c02fb489021507bc6bb6f850e365836040516103cb9190611204565b60405180910390a360008111156104c357600160009054906101000a900473ffffffffffffffffffffffffffffffffffffffff1673ffffffffffffffffffffffffffffffffffffffff1663a9059cbb33836040518363ffffffff1660e01b81526004016104399291906115eb565b6020604051808303816000875af1158015610458573d6000803e3d6000fd5b505050506040513d601f19601f8201168201806040525081019061047c919061164c565b50803373ffffffffffffffffffffffffffffffffffffffff16847f4ec90e965519d92681267467f775ada5bd214aa92c0dc93d90a5e880ce9ed02660405160405180910390a45b505050565b6000600382815481106104de576104dd61143b565b5b90600052602060002090600602016040518060c0016040529081600082015481526020016001820160009054906101000a900473ffffffffffffffffffffffffffffffffffffffff1673ffffffffffffffffffffffffffffffffffffffff1673ffffffffffffffffffffffffffffffffffffffff1681526020016002820154815260200160038201548152602001600482015481526020016005820154815250509050806020015173ffffffffffffffffffffffffffffffffffffffff163373ffffffffffffffffffffffffffffffffffffffff16146105f3576040517f08c379a00000000000000000000000000000000000000000000000000000000081526004016105ea90611559565b60405180910390fd5b6000816040015190506000826080015190506000811461066d57610e10836080015161061f9190611679565b8261062a91906116d3565b42101561066c576040517f08c379a000000000000000000000000000000000000000000000000000000000815260040161066390611775565b60405180910390fd5b5b600061067a856000610f83565b90506000821461071957836060015160008082825461069991906115a8565b92505081905550600385815481106106b4576106b361143b565b5b90600052602060002090600602016000808201600090556001820160006101000a81549073ffffffffffffffffffffffffffffffffffffffff02191690556002820160009055600382016000905560048201600090556005820160009055505061074a565b4263ffffffff16600386815481106107345761073361143b565b5b9060005260206000209060060201600201819055505b600081111561083a57600160009054906101000a900473ffffffffffffffffffffffffffffffffffffffff1673ffffffffffffffffffffffffffffffffffffffff1663a9059cbb33836040518363ffffffff1660e01b81526004016107b09291906115eb565b6020604051808303816000875af11580156107cf573d6000803e3d6000fd5b505050506040513d601f19601f820116820180604052508101906107f3919061164c565b50803373ffffffffffffffffffffffffffffffffffffffff16867f4ec90e965519d92681267467f775ada5bd214aa92c0dc93d90a5e880ce9ed02660405160405180910390a45b5050505050565b600260009054906101000a900473ffffffffffffffffffffffffffffffffffffffff1673ffffffffffffffffffffffffffffffffffffffff163373ffffffffffffffffffffffffffffffffffffffff16146108d1576040517f08c379a00000000000000000000000000000000000000000000000000000000081526004016108c8906117e1565b60405180910390fd5b606460046000600481106108e8576108e761143b565b5b6003020160000181905550601e600460006004811061090a5761090961143b565b5b60030201600101819055506000600460006004811061092c5761092b61143b565b5b6003020160020160006101000a81548160ff021916908360ff160217905550608a60046001600481106109625761096161143b565b5b6003020160000181905550605a60046001600481106109845761098361143b565b5b6003020160010181905550600160046001600481106109a6576109a561143b565b5b6003020160020160006101000a81548160ff021916908360ff16021790555060dc60046002600481106109dc576109db61143b565b5b600302016000018190555060b460046002600481106109fe576109fd61143b565b5b600302016001018190555060026004600260048110610a2057610a1f61143b565b5b6003020160020160006101000a81548160ff021916908360ff16021790555060056004600360048110610a5657610a5561143b565b5b600302016000018190555060006004600360048110610a7857610a7761143b565b5b600302016001018190555060036004600360048110610a9a57610a9961143b565b5b6003020160020160006101000a81548160ff021916908360ff160217905550565b60005481565b610ac961113c565b60048080602002604051908101604052809291906000905b82821015610b3a5783826003020160405180606001604052908160008201548152602001600182015481526020016002820160009054906101000a900460ff1660ff1660ff168152505081526020019060010190610ae1565b50505050905090565b600060048360ff1660048110610b5c57610b5b61143b565b5b6003020160405180606001604052908160008201548152602001600182015481526020016002820160009054906101000a900460ff1660ff1660ff168152505090506000600160009054906101000a900473ffffffffffffffffffffffffffffffffffffffff1673ffffffffffffffffffffffffffffffffffffffff1663dd62ed3e33306040518363ffffffff1660e01b8152600401610bfd929190611801565b602060405180830381865afa158015610c1a573d6000803e3d6000fd5b505050506040513d601f19601f82011682018060405250810190610c3e919061183f565b905082811015610c83576040517f08c379a0000000000000000000000000000000000000000000000000000000008152600401610c7a906118b8565b60405180910390fd5b600160009054906101000a900473ffffffffffffffffffffffffffffffffffffffff1673ffffffffffffffffffffffffffffffffffffffff166323b872dd3330866040518463ffffffff1660e01b8152600401610ce2939291906118d8565b6020604051808303816000875af1158015610d01573d6000803e3d6000fd5b505050506040513d601f19601f82011682018060405250810190610d25919061164c565b5082600080828254610d3791906116d3565b925050819055506000600380549050905060036040518060c001604052808381526020013373ffffffffffffffffffffffffffffffffffffffff16815260200142815260200186815260200185602001518152602001856000015181525090806001815401808255809150506001900390600052602060002090600602016000909190919091506000820151816000015560208201518160010160006101000a81548173ffffffffffffffffffffffffffffffffffffffff021916908373ffffffffffffffffffffffffffffffffffffffff16021790555060408201518160020155606082015181600301556080820151816004015560a0820151816005015550503373ffffffffffffffffffffffffffffffffffffffff16817f94f54bb48cedd45253f4ace35b1e25b1396407c5316b875feafaf710a8a1c48e8686602001518760000151604051610e8c9392919061190f565b60405180910390a35050505050565b6000610ea8826001610f83565b9050919050565b600260009054906101000a900473ffffffffffffffffffffffffffffffffffffffff1673ffffffffffffffffffffffffffffffffffffffff163373ffffffffffffffffffffffffffffffffffffffff1614610f3f576040517f08c379a0000000000000000000000000000000000000000000000000000000008152600401610f36906117e1565b60405180910390fd5b80600260006101000a81548173ffffffffffffffffffffffffffffffffffffffff021916908373ffffffffffffffffffffffffffffffffffffffff16021790555050565b60008060038481548110610f9a57610f9961143b565b5b90600052602060002090600602016040518060c0016040529081600082015481526020016001820160009054906101000a900473ffffffffffffffffffffffffffffffffffffffff1673ffffffffffffffffffffffffffffffffffffffff1673ffffffffffffffffffffffffffffffffffffffff168152602001600282015481526020016003820154815260200160048201548152602001600582015481525050905060008160a0015190506000826080015114156110df5760006201518083604001514261106991906115a8565b6110739190611975565b90506000601e600c60648486886060015161108e9190611679565b6110989190611679565b6110a29190611975565b6110ac9190611975565b6110b69190611975565b9050856110c357806110d4565b8084606001516110d391906116d3565b5b945050505050611136565b600c601e606483856060015186608001516110fa9190611679565b6111049190611679565b61110e9190611975565b6111189190611975565b6111229190611975565b826060015161113191906116d3565b925050505b92915050565b60405180608001604052806004905b611153611169565b81526020019060019003908161114b5790505090565b60405180606001604052806000815260200160008152602001600060ff1681525090565b600080fd5b6000819050919050565b6111a581611192565b81146111b057600080fd5b50565b6000813590506111c28161119c565b92915050565b6000602082840312156111de576111dd61118d565b5b60006111ec848285016111b3565b91505092915050565b6111fe81611192565b82525050565b600060208201905061121960008301846111f5565b92915050565b600060049050919050565b600081905092915050565b6000819050919050565b61124881611192565b82525050565b600060ff82169050919050565b6112648161124e565b82525050565b606082016000820151611280600085018261123f565b506020820151611293602085018261123f565b5060408201516112a6604085018261125b565b50505050565b60006112b8838361126a565b60608301905092915050565b6000602082019050919050565b6112da8161121f565b6112e4818461122a565b92506112ef82611235565b8060005b8381101561132057815161130787826112ac565b9650611312836112c4565b9250506001810190506112f3565b505050505050565b60006101808201905061133e60008301846112d1565b92915050565b61134d8161124e565b811461135857600080fd5b50565b60008135905061136a81611344565b92915050565b600080604083850312156113875761138661118d565b5b60006113958582860161135b565b92505060206113a6858286016111b3565b9150509250929050565b600073ffffffffffffffffffffffffffffffffffffffff82169050919050565b60006113db826113b0565b9050919050565b6113eb816113d0565b81146113f657600080fd5b50565b600081359050611408816113e2565b92915050565b6000602082840312156114245761142361118d565b5b6000611432848285016113f9565b91505092915050565b7f4e487b7100000000000000000000000000000000000000000000000000000000600052603260045260246000fd5b600082825260208201905092915050565b7f43616e6e6f7420756e7374616b65206669786564207374616b696e672070616360008201527f6b61676500000000000000000000000000000000000000000000000000000000602082015250565b60006114d760248361146a565b91506114e28261147b565b604082019050919050565b60006020820190508181036000830152611506816114ca565b9050919050565b7f4f776e61626c653a204e6f74206f776e65720000000000000000000000000000600082015250565b600061154360128361146a565b915061154e8261150d565b602082019050919050565b6000602082019050818103600083015261157281611536565b9050919050565b7f4e487b7100000000000000000000000000000000000000000000000000000000600052601160045260246000fd5b60006115b382611192565b91506115be83611192565b9250828210156115d1576115d0611579565b5b828203905092915050565b6115e5816113d0565b82525050565b600060408201905061160060008301856115dc565b61160d60208301846111f5565b9392505050565b60008115159050919050565b61162981611614565b811461163457600080fd5b50565b60008151905061164681611620565b92915050565b6000602082840312156116625761166161118d565b5b600061167084828501611637565b91505092915050565b600061168482611192565b915061168f83611192565b9250817fffffffffffffffffffffffffffffffffffffffffffffffffffffffffffffffff04831182151516156116c8576116c7611579565b5b828202905092915050565b60006116de82611192565b91506116e983611192565b9250827fffffffffffffffffffffffffffffffffffffffffffffffffffffffffffffffff0382111561171e5761171d611579565b5b828201905092915050565b7f5374616b696e67206c6f636b6564000000000000000000000000000000000000600082015250565b600061175f600e8361146a565b915061176a82611729565b602082019050919050565b6000602082019050818103600083015261178e81611752565b9050919050565b7f46697368646f6d5374616b696e673a204e6f74206f776e657200000000000000600082015250565b60006117cb60198361146a565b91506117d682611795565b602082019050919050565b600060208201905081810360008301526117fa816117be565b9050919050565b600060408201905061181660008301856115dc565b61182360208301846115dc565b9392505050565b6000815190506118398161119c565b92915050565b6000602082840312156118555761185461118d565b5b60006118638482850161182a565b91505092915050565b7f46697368646f6d5374616b696e673a204f76657220616c6c6f77616e63650000600082015250565b60006118a2601e8361146a565b91506118ad8261186c565b602082019050919050565b600060208201905081810360008301526118d181611895565b9050919050565b60006060820190506118ed60008301866115dc565b6118fa60208301856115dc565b61190760408301846111f5565b949350505050565b600060608201905061192460008301866111f5565b61193160208301856111f5565b61193e60408301846111f5565b949350505050565b7f4e487b7100000000000000000000000000000000000000000000000000000000600052601260045260246000fd5b600061198082611192565b915061198b83611192565b92508261199b5761199a611946565b5b82820490509291505056fea2646970667358221220dbe68388b48208ce6481fdab3e69511a2d130d94e1340ea5c542ad443963e7a564736f6c634300080b0033",
  "immutableReferences": {},
  "source": "// SPDX-License-Identifier: MIT\r\npragma solidity ^0.8.7;\r\n\r\nimport \"@openzeppelin/contracts/token/ERC20/IERC20.sol\";\r\nimport \"./token/IFishdomToken.sol\";\r\n\r\ncontract FishdomStaking {\r\n    uint256 constant unitToSecond = 60 * 60;\r\n    uint256 public totalStaked;\r\n\r\n    struct Package {\r\n        uint256 apr;\r\n        uint256 duration;\r\n        uint8 id;\r\n    }\r\n\r\n    /**\r\n     * @param owner: address of user staked\r\n     * @param timestamp: last time check\r\n     * @param amount: amount that user spent\r\n     */\r\n    struct Stake {\r\n        uint256 stakeId;\r\n        address owner;\r\n        uint256 timestamp;\r\n        uint256 amount;\r\n        uint256 duration;\r\n        uint256 apr;\r\n    }\r\n\r\n    event Staked(\r\n        uint256 indexed stakeId,\r\n        address indexed owner,\r\n        uint256 amount,\r\n        uint256 duration,\r\n        uint256 apr\r\n    );\r\n\r\n    event Unstaked(\r\n        uint256 indexed stakeId,\r\n        address indexed owner,\r\n        uint256 claimed\r\n    );\r\n\r\n    event Claimed(\r\n        uint256 indexed stakeId,\r\n        address indexed owner,\r\n        uint256 indexed amount\r\n    );\r\n\r\n    IFishdomToken FishdomToken;\r\n    address _owner;\r\n\r\n    // maps address of user to stake\r\n    Stake[] vault;\r\n    Package[4] packages;\r\n\r\n    constructor(address token_) {\r\n        FishdomToken = IFishdomToken(token_);\r\n        _owner = msg.sender;\r\n    }\r\n\r\n    function initialize() external onlyOwner {\r\n        packages[0].apr = 100;\r\n        packages[0].duration = 30;\r\n        packages[0].id = 0;\r\n        packages[1].apr = 138;\r\n        packages[1].duration = 90;\r\n        packages[1].id = 1;\r\n        packages[2].apr = 220;\r\n        packages[2].duration = 180;\r\n        packages[2].id = 2;\r\n        packages[3].apr = 5;\r\n        packages[3].duration = 0;\r\n        packages[3].id = 3;\r\n    }\r\n\r\n    function getListPackage() public view returns (Package[4] memory) {\r\n        return packages;\r\n    }\r\n\r\n    function _calculateEarned(uint256 stakingId, bool isGetAll)\r\n        internal\r\n        view\r\n        returns (uint256)\r\n    {\r\n        Stake memory ownerStaking = vault[stakingId];\r\n        uint256 finalApr = ownerStaking.apr;\r\n        if (ownerStaking.duration == 0) {\r\n            uint256 stakedTimeClaim = (block.timestamp -\r\n                ownerStaking.timestamp) / 1 days;\r\n            uint256 earned = (ownerStaking.amount *\r\n                finalApr *\r\n                stakedTimeClaim) /\r\n                100 /\r\n                12 /\r\n                30; // tin li theo ngy * s ngy\r\n\r\n            return isGetAll ? ownerStaking.amount + earned : earned;\r\n        } else {\r\n            return\r\n                ownerStaking.amount +\r\n                ((ownerStaking.duration * ownerStaking.amount * finalApr) /\r\n                    100 /\r\n                    30 /\r\n                    12); // tin li theo ngy * s ngy\r\n        }\r\n    }\r\n\r\n    /**\r\n     * @param _stakingId: 0 fixed - 30, 1 fixed - 90, 2 fixed - 180, 3: unfixed\r\n     * @param _amount: amount user spent\r\n     */\r\n    function stake(uint8 _stakingId, uint256 _amount) external {\r\n        Package memory finalPackage = packages[_stakingId];\r\n\r\n        uint256 allowance = FishdomToken.allowance(msg.sender, address(this));\r\n        require(allowance >= _amount, \"FishdomStaking: Over allowance\");\r\n        FishdomToken.transferFrom(msg.sender, address(this), _amount);\r\n\r\n        totalStaked += _amount;\r\n        uint256 newStakeId = vault.length;\r\n        vault.push(\r\n            Stake(\r\n                newStakeId,\r\n                msg.sender,\r\n                block.timestamp,\r\n                _amount,\r\n                finalPackage.duration,\r\n                finalPackage.apr\r\n            )\r\n        );\r\n        emit Staked(\r\n            newStakeId,\r\n            msg.sender,\r\n            _amount,\r\n            finalPackage.duration,\r\n            finalPackage.apr\r\n        );\r\n    }\r\n\r\n    function claim(uint256 _stakingId) external {\r\n        Stake memory staked = vault[_stakingId];\r\n        require(msg.sender == staked.owner, \"Ownable: Not owner\");\r\n        uint256 lastTimeCheck = staked.timestamp;\r\n        uint256 stakeDuration = staked.duration;\r\n        if (stakeDuration != 0) {\r\n            require(\r\n                block.timestamp >=\r\n                    (lastTimeCheck + (staked.duration * unitToSecond)),\r\n                \"Staking locked\"\r\n            );\r\n        }\r\n        uint256 earned = _calculateEarned(_stakingId, false);\r\n        if (stakeDuration != 0) {\r\n            totalStaked -= staked.amount;\r\n            delete vault[_stakingId];\r\n        } else {\r\n            vault[_stakingId].timestamp = uint32(block.timestamp);\r\n        }\r\n        if (earned > 0) {\r\n            FishdomToken.transfer(msg.sender, earned);\r\n            emit Claimed(_stakingId, msg.sender, earned);\r\n        }\r\n    }\r\n\r\n    function unstake(uint256 _stakingId) external {\r\n        Stake memory staked = vault[_stakingId];\r\n        require(staked.duration == 0, \"Cannot unstake fixed staking package\");\r\n        require(msg.sender == staked.owner, \"Ownable: Not owner\");\r\n        // xo staking\r\n        uint256 earned = _calculateEarned(_stakingId, true);\r\n        totalStaked -= staked.amount;\r\n        delete vault[_stakingId];\r\n        emit Unstaked(_stakingId, msg.sender, earned);\r\n        if (earned > 0) {\r\n            FishdomToken.transfer(msg.sender, earned);\r\n            emit Claimed(_stakingId, msg.sender, earned);\r\n        }\r\n    }\r\n\r\n    function getEarned(uint256 stakingId) external view returns (uint256) {\r\n        return _calculateEarned(stakingId, true);\r\n    }\r\n\r\n    /**\r\n     * @dev Transfers ownership of the contract to a new account (`newOwner`).\r\n     * Can only be called by the current owner.\r\n     */\r\n    function transferOwnership(address newOwner) external onlyOwner {\r\n        _owner = newOwner;\r\n    }\r\n\r\n    modifier onlyOwner() {\r\n        require(msg.sender == _owner, \"FishdomStaking: Not owner\");\r\n        _;\r\n    }\r\n}\r\n",
  "sourcePath": "C:\\Github\\fishdom_defi_blockchain\\contracts\\FishdomStaking.sol",
  "compiler": {
    "name": "solc",
    "version": "0.8.11+commit.d7f03943.Emscripten.clang"
  },
  "schemaVersion": "3.4.7",
  "updatedAt": "2022-09-01T15:16:31.772Z",
  "networkType": "ethereum",
  "devdoc": {
    "kind": "dev",
    "methods": {
      "stake(uint8,uint256)": {
        "params": {
          "_amount": ": amount user spent",
          "_stakingId": ": 0 fixed - 30, 1 fixed - 90, 2 fixed - 180, 3: unfixed"
        }
      },
      "transferOwnership(address)": {
        "details": "Transfers ownership of the contract to a new account (`newOwner`). Can only be called by the current owner."
      }
    },
    "version": 1
  },
  "userdoc": {
    "kind": "user",
    "methods": {},
    "version": 1
  }
}