{
  "contractName": "FishdomNFT",
  "abi": [
    {
      "inputs": [
        {
          "internalType": "string",
          "name": "name_",
          "type": "string"
        },
        {
          "internalType": "string",
          "name": "symbol_",
          "type": "string"
        },
        {
          "internalType": "string",
          "name": "baseUri_",
          "type": "string"
        }
      ],
      "stateMutability": "nonpayable",
      "type": "constructor"
    },
    {
      "anonymous": false,
      "inputs": [
        {
          "indexed": true,
          "internalType": "address",
          "name": "owner",
          "type": "address"
        },
        {
          "indexed": true,
          "internalType": "address",
          "name": "approved",
          "type": "address"
        },
        {
          "indexed": true,
          "internalType": "uint256",
          "name": "tokenId",
          "type": "uint256"
        }
      ],
      "name": "Approval",
      "type": "event"
    },
    {
      "anonymous": false,
      "inputs": [
        {
          "indexed": true,
          "internalType": "address",
          "name": "owner",
          "type": "address"
        },
        {
          "indexed": true,
          "internalType": "address",
          "name": "operator",
          "type": "address"
        },
        {
          "indexed": false,
          "internalType": "bool",
          "name": "approved",
          "type": "bool"
        }
      ],
      "name": "ApprovalForAll",
      "type": "event"
    },
    {
      "anonymous": false,
      "inputs": [
        {
          "indexed": true,
          "internalType": "address",
          "name": "from",
          "type": "address"
        },
        {
          "indexed": true,
          "internalType": "address",
          "name": "to",
          "type": "address"
        },
        {
          "indexed": true,
          "internalType": "uint256",
          "name": "tokenId",
          "type": "uint256"
        }
      ],
      "name": "Transfer",
      "type": "event"
    },
    {
      "inputs": [
        {
          "internalType": "address",
          "name": "to",
          "type": "address"
        },
        {
          "internalType": "uint256",
          "name": "tokenId",
          "type": "uint256"
        }
      ],
      "name": "approve",
      "outputs": [],
      "stateMutability": "nonpayable",
      "type": "function"
    },
    {
      "inputs": [
        {
          "internalType": "address",
          "name": "owner",
          "type": "address"
        }
      ],
      "name": "balanceOf",
      "outputs": [
        {
          "internalType": "uint256",
          "name": "",
          "type": "uint256"
        }
      ],
      "stateMutability": "view",
      "type": "function",
      "constant": true
    },
    {
      "inputs": [
        {
          "internalType": "uint256",
          "name": "tokenId",
          "type": "uint256"
        }
      ],
      "name": "getApproved",
      "outputs": [
        {
          "internalType": "address",
          "name": "",
          "type": "address"
        }
      ],
      "stateMutability": "view",
      "type": "function",
      "constant": true
    },
    {
      "inputs": [
        {
          "internalType": "address",
          "name": "owner",
          "type": "address"
        },
        {
          "internalType": "address",
          "name": "operator",
          "type": "address"
        }
      ],
      "name": "isApprovedForAll",
      "outputs": [
        {
          "internalType": "bool",
          "name": "",
          "type": "bool"
        }
      ],
      "stateMutability": "view",
      "type": "function",
      "constant": true
    },
    {
      "inputs": [],
      "name": "name",
      "outputs": [
        {
          "internalType": "string",
          "name": "",
          "type": "string"
        }
      ],
      "stateMutability": "view",
      "type": "function",
      "constant": true
    },
    {
      "inputs": [
        {
          "internalType": "uint256",
          "name": "tokenId",
          "type": "uint256"
        }
      ],
      "name": "ownerOf",
      "outputs": [
        {
          "internalType": "address",
          "name": "",
          "type": "address"
        }
      ],
      "stateMutability": "view",
      "type": "function",
      "constant": true
    },
    {
      "inputs": [
        {
          "internalType": "address",
          "name": "from",
          "type": "address"
        },
        {
          "internalType": "address",
          "name": "to",
          "type": "address"
        },
        {
          "internalType": "uint256",
          "name": "tokenId",
          "type": "uint256"
        }
      ],
      "name": "safeTransferFrom",
      "outputs": [],
      "stateMutability": "nonpayable",
      "type": "function"
    },
    {
      "inputs": [
        {
          "internalType": "address",
          "name": "from",
          "type": "address"
        },
        {
          "internalType": "address",
          "name": "to",
          "type": "address"
        },
        {
          "internalType": "uint256",
          "name": "tokenId",
          "type": "uint256"
        },
        {
          "internalType": "bytes",
          "name": "_data",
          "type": "bytes"
        }
      ],
      "name": "safeTransferFrom",
      "outputs": [],
      "stateMutability": "nonpayable",
      "type": "function"
    },
    {
      "inputs": [
        {
          "internalType": "address",
          "name": "operator",
          "type": "address"
        },
        {
          "internalType": "bool",
          "name": "approved",
          "type": "bool"
        }
      ],
      "name": "setApprovalForAll",
      "outputs": [],
      "stateMutability": "nonpayable",
      "type": "function"
    },
    {
      "inputs": [
        {
          "internalType": "bytes4",
          "name": "interfaceId",
          "type": "bytes4"
        }
      ],
      "name": "supportsInterface",
      "outputs": [
        {
          "internalType": "bool",
          "name": "",
          "type": "bool"
        }
      ],
      "stateMutability": "view",
      "type": "function",
      "constant": true
    },
    {
      "inputs": [],
      "name": "symbol",
      "outputs": [
        {
          "internalType": "string",
          "name": "",
          "type": "string"
        }
      ],
      "stateMutability": "view",
      "type": "function",
      "constant": true
    },
    {
      "inputs": [
        {
          "internalType": "uint256",
          "name": "index",
          "type": "uint256"
        }
      ],
      "name": "tokenByIndex",
      "outputs": [
        {
          "internalType": "uint256",
          "name": "",
          "type": "uint256"
        }
      ],
      "stateMutability": "view",
      "type": "function",
      "constant": true
    },
    {
      "inputs": [
        {
          "internalType": "address",
          "name": "owner",
          "type": "address"
        },
        {
          "internalType": "uint256",
          "name": "index",
          "type": "uint256"
        }
      ],
      "name": "tokenOfOwnerByIndex",
      "outputs": [
        {
          "internalType": "uint256",
          "name": "",
          "type": "uint256"
        }
      ],
      "stateMutability": "view",
      "type": "function",
      "constant": true
    },
    {
      "inputs": [],
      "name": "totalSupply",
      "outputs": [
        {
          "internalType": "uint256",
          "name": "",
          "type": "uint256"
        }
      ],
      "stateMutability": "view",
      "type": "function",
      "constant": true
    },
    {
      "inputs": [
        {
          "internalType": "address",
          "name": "from",
          "type": "address"
        },
        {
          "internalType": "address",
          "name": "to",
          "type": "address"
        },
        {
          "internalType": "uint256",
          "name": "tokenId",
          "type": "uint256"
        }
      ],
      "name": "transferFrom",
      "outputs": [],
      "stateMutability": "nonpayable",
      "type": "function"
    },
    {
      "inputs": [
        {
          "internalType": "string",
          "name": "baseUri_",
          "type": "string"
        }
      ],
      "name": "setBaseUri",
      "outputs": [],
      "stateMutability": "nonpayable",
      "type": "function"
    },
    {
      "inputs": [
        {
          "internalType": "uint256",
          "name": "tokenId",
          "type": "uint256"
        }
      ],
      "name": "tokenURI",
      "outputs": [
        {
          "internalType": "string",
          "name": "",
          "type": "string"
        }
      ],
      "stateMutability": "view",
      "type": "function",
      "constant": true
    },
    {
      "inputs": [
        {
          "internalType": "uint256",
          "name": "number",
          "type": "uint256"
        }
      ],
      "name": "mint",
      "outputs": [],
      "stateMutability": "nonpayable",
      "type": "function"
    },
    {
      "inputs": [
        {
          "internalType": "uint256",
          "name": "tokenId",
          "type": "uint256"
        }
      ],
      "name": "burn",
      "outputs": [],
      "stateMutability": "nonpayable",
      "type": "function"
    },
    {
      "inputs": [
        {
          "internalType": "address",
          "name": "account",
          "type": "address"
        }
      ],
      "name": "ownerToTokenArray",
      "outputs": [
        {
          "internalType": "uint256[]",
          "name": "",
          "type": "uint256[]"
        }
      ],
      "stateMutability": "view",
      "type": "function",
      "constant": true
    },
    {
      "inputs": [
        {
          "internalType": "address",
          "name": "newOwner",
          "type": "address"
        }
      ],
      "name": "transferOwnership",
      "outputs": [],
      "stateMutability": "nonpayable",
      "type": "function"
    }
  ],
  "bytecode": "0x60806040523480156200001157600080fd5b5060405162003b1d38038062003b1d83398181016040528101906200003791906200034a565b8282816000908051906020019062000051929190620000fd565b5080600190805190602001906200006a929190620000fd565b50505080600b908051906020019062000085929190620000fd565b5033600c60006101000a81548173ffffffffffffffffffffffffffffffffffffffff021916908373ffffffffffffffffffffffffffffffffffffffff160217905550620000de600a620000e760201b62000f5c1760201c565b50505062000468565b6001816000016000828254019250508190555050565b8280546200010b9062000432565b90600052602060002090601f0160209004810192826200012f57600085556200017b565b82601f106200014a57805160ff19168380011785556200017b565b828001600101855582156200017b579182015b828111156200017a5782518255916020019190600101906200015d565b5b5090506200018a91906200018e565b5090565b5b80821115620001a95760008160009055506001016200018f565b5090565b6000604051905090565b600080fd5b600080fd5b600080fd5b600080fd5b6000601f19601f8301169050919050565b7f4e487b7100000000000000000000000000000000000000000000000000000000600052604160045260246000fd5b6200021682620001cb565b810181811067ffffffffffffffff82111715620002385762000237620001dc565b5b80604052505050565b60006200024d620001ad565b90506200025b82826200020b565b919050565b600067ffffffffffffffff8211156200027e576200027d620001dc565b5b6200028982620001cb565b9050602081019050919050565b60005b83811015620002b657808201518184015260208101905062000299565b83811115620002c6576000848401525b50505050565b6000620002e3620002dd8462000260565b62000241565b905082815260208101848484011115620003025762000301620001c6565b5b6200030f84828562000296565b509392505050565b600082601f8301126200032f576200032e620001c1565b5b815162000341848260208601620002cc565b91505092915050565b600080600060608486031215620003665762000365620001b7565b5b600084015167ffffffffffffffff811115620003875762000386620001bc565b5b620003958682870162000317565b935050602084015167ffffffffffffffff811115620003b957620003b8620001bc565b5b620003c78682870162000317565b925050604084015167ffffffffffffffff811115620003eb57620003ea620001bc565b5b620003f98682870162000317565b9150509250925092565b7f4e487b7100000000000000000000000000000000000000000000000000000000600052602260045260246000fd5b600060028204905060018216806200044b57607f821691505b6020821081141562000462576200046162000403565b5b50919050565b6136a580620004786000396000f3fe608060405234801561001057600080fd5b50600436106101375760003560e01c80636352211e116100b8578063a0bcfc7f1161007c578063a0bcfc7f14610372578063a22cb4651461038e578063b88d4fde146103aa578063c87b56dd146103c6578063e985e9c5146103f6578063f2fde38b1461042657610137565b80636352211e146102a857806370a08231146102d85780637157b4cc1461030857806395d89b4114610338578063a0712d681461035657610137565b806323b872dd116100ff57806323b872dd146101f45780632f745c591461021057806342842e0e1461024057806342966c681461025c5780634f6ccce71461027857610137565b806301ffc9a71461013c57806306fdde031461016c578063081812fc1461018a578063095ea7b3146101ba57806318160ddd146101d6575b600080fd5b610156600480360381019061015191906122cf565b610442565b6040516101639190612317565b60405180910390f35b6101746104bc565b60405161018191906123cb565b60405180910390f35b6101a4600480360381019061019f9190612423565b61054e565b6040516101b19190612491565b60405180910390f35b6101d460048036038101906101cf91906124d8565b6105d3565b005b6101de6106eb565b6040516101eb9190612527565b60405180910390f35b61020e60048036038101906102099190612542565b6106f8565b005b61022a600480360381019061022591906124d8565b610758565b6040516102379190612527565b60405180910390f35b61025a60048036038101906102559190612542565b6107fd565b005b61027660048036038101906102719190612423565b61081d565b005b610292600480360381019061028d9190612423565b610879565b60405161029f9190612527565b60405180910390f35b6102c260048036038101906102bd9190612423565b6108ea565b6040516102cf9190612491565b60405180910390f35b6102f260048036038101906102ed9190612595565b61099c565b6040516102ff9190612527565b60405180910390f35b610322600480360381019061031d9190612595565b610a54565b60405161032f9190612680565b60405180910390f35b610340610b04565b60405161034d91906123cb565b60405180910390f35b610370600480360381019061036b9190612423565b610b96565b005b61038c60048036038101906103879190612707565b610c65565b005b6103a860048036038101906103a39190612780565b610d0b565b005b6103c460048036038101906103bf91906128f0565b610d21565b005b6103e060048036038101906103db9190612423565b610d83565b6040516103ed91906123cb565b60405180910390f35b610410600480360381019061040b9190612973565b610df4565b60405161041d9190612317565b60405180910390f35b610440600480360381019061043b9190612595565b610e88565b005b60007f780e9d63000000000000000000000000000000000000000000000000000000007bffffffffffffffffffffffffffffffffffffffffffffffffffffffff1916827bffffffffffffffffffffffffffffffffffffffffffffffffffffffff191614806104b557506104b482610f72565b5b9050919050565b6060600080546104cb906129e2565b80601f01602080910402602001604051908101604052809291908181526020018280546104f7906129e2565b80156105445780601f1061051957610100808354040283529160200191610544565b820191906000526020600020905b81548152906001019060200180831161052757829003601f168201915b5050505050905090565b600061055982611054565b610598576040517f08c379a000000000000000000000000000000000000000000000000000000000815260040161058f90612a86565b60405180910390fd5b6004600083815260200190815260200160002060009054906101000a900473ffffffffffffffffffffffffffffffffffffffff169050919050565b60006105de826108ea565b90508073ffffffffffffffffffffffffffffffffffffffff168373ffffffffffffffffffffffffffffffffffffffff16141561064f576040517f08c379a000000000000000000000000000000000000000000000000000000000815260040161064690612b18565b60405180910390fd5b8073ffffffffffffffffffffffffffffffffffffffff1661066e6110c0565b73ffffffffffffffffffffffffffffffffffffffff16148061069d575061069c816106976110c0565b610df4565b5b6106dc576040517f08c379a00000000000000000000000000000000000000000000000000000000081526004016106d390612baa565b60405180910390fd5b6106e683836110c8565b505050565b6000600880549050905090565b6107096107036110c0565b82611181565b610748576040517f08c379a000000000000000000000000000000000000000000000000000000000815260040161073f90612c3c565b60405180910390fd5b61075383838361125f565b505050565b60006107638361099c565b82106107a4576040517f08c379a000000000000000000000000000000000000000000000000000000000815260040161079b90612cce565b60405180910390fd5b600660008473ffffffffffffffffffffffffffffffffffffffff1673ffffffffffffffffffffffffffffffffffffffff168152602001908152602001600020600083815260200190815260200160002054905092915050565b61081883838360405180602001604052806000815250610d21565b505050565b61082e6108286110c0565b82611181565b61086d576040517f08c379a000000000000000000000000000000000000000000000000000000000815260040161086490612d60565b60405180910390fd5b610876816114c6565b50565b60006108836106eb565b82106108c4576040517f08c379a00000000000000000000000000000000000000000000000000000000081526004016108bb90612df2565b60405180910390fd5b600882815481106108d8576108d7612e12565b5b90600052602060002001549050919050565b6000806002600084815260200190815260200160002060009054906101000a900473ffffffffffffffffffffffffffffffffffffffff169050600073ffffffffffffffffffffffffffffffffffffffff168173ffffffffffffffffffffffffffffffffffffffff161415610993576040517f08c379a000000000000000000000000000000000000000000000000000000000815260040161098a90612eb3565b60405180910390fd5b80915050919050565b60008073ffffffffffffffffffffffffffffffffffffffff168273ffffffffffffffffffffffffffffffffffffffff161415610a0d576040517f08c379a0000000000000000000000000000000000000000000000000000000008152600401610a0490612f45565b60405180910390fd5b600360008373ffffffffffffffffffffffffffffffffffffffff1673ffffffffffffffffffffffffffffffffffffffff168152602001908152602001600020549050919050565b60606000610a618361099c565b67ffffffffffffffff811115610a7a57610a796127c5565b5b604051908082528060200260200182016040528015610aa85781602001602082028036833780820191505090505b50905060005b610ab78461099c565b811015610afa57610ac88482610758565b828281518110610adb57610ada612e12565b5b6020026020010181815250508080610af290612f94565b915050610aae565b5080915050919050565b606060018054610b13906129e2565b80601f0160208091040260200160405190810160405280929190818152602001828054610b3f906129e2565b8015610b8c5780601f10610b6157610100808354040283529160200191610b8c565b820191906000526020600020905b815481529060010190602001808311610b6f57829003601f168201915b5050505050905090565b600c60009054906101000a900473ffffffffffffffffffffffffffffffffffffffff1673ffffffffffffffffffffffffffffffffffffffff163373ffffffffffffffffffffffffffffffffffffffff1614610c26576040517f08c379a0000000000000000000000000000000000000000000000000000000008152600401610c1d90613029565b60405180910390fd5b60005b81811015610c6157610c4433610c3f600a6115e3565b6115f1565b610c4e600a610f5c565b8080610c5990612f94565b915050610c29565b5050565b600c60009054906101000a900473ffffffffffffffffffffffffffffffffffffffff1673ffffffffffffffffffffffffffffffffffffffff163373ffffffffffffffffffffffffffffffffffffffff1614610cf5576040517f08c379a0000000000000000000000000000000000000000000000000000000008152600401610cec90613029565b60405180910390fd5b8181600b9190610d069291906121c0565b505050565b610d1d610d166110c0565b83836117cb565b5050565b610d32610d2c6110c0565b83611181565b610d71576040517f08c379a0000000000000000000000000000000000000000000000000000000008152600401610d6890612c3c565b60405180910390fd5b610d7d84848484611938565b50505050565b6060610d8d611994565b610d9683611a26565b6040518060400160405280600581526020017f2e6a736f6e000000000000000000000000000000000000000000000000000000815250604051602001610dde93929190613085565b6040516020818303038152906040529050919050565b6000600560008473ffffffffffffffffffffffffffffffffffffffff1673ffffffffffffffffffffffffffffffffffffffff16815260200190815260200160002060008373ffffffffffffffffffffffffffffffffffffffff1673ffffffffffffffffffffffffffffffffffffffff16815260200190815260200160002060009054906101000a900460ff16905092915050565b600c60009054906101000a900473ffffffffffffffffffffffffffffffffffffffff1673ffffffffffffffffffffffffffffffffffffffff163373ffffffffffffffffffffffffffffffffffffffff1614610f18576040517f08c379a0000000000000000000000000000000000000000000000000000000008152600401610f0f90613029565b60405180910390fd5b80600c60006101000a81548173ffffffffffffffffffffffffffffffffffffffff021916908373ffffffffffffffffffffffffffffffffffffffff16021790555050565b6001816000016000828254019250508190555050565b60007f80ac58cd000000000000000000000000000000000000000000000000000000007bffffffffffffffffffffffffffffffffffffffffffffffffffffffff1916827bffffffffffffffffffffffffffffffffffffffffffffffffffffffff1916148061103d57507f5b5e139f000000000000000000000000000000000000000000000000000000007bffffffffffffffffffffffffffffffffffffffffffffffffffffffff1916827bffffffffffffffffffffffffffffffffffffffffffffffffffffffff1916145b8061104d575061104c82611b87565b5b9050919050565b60008073ffffffffffffffffffffffffffffffffffffffff166002600084815260200190815260200160002060009054906101000a900473ffffffffffffffffffffffffffffffffffffffff1673ffffffffffffffffffffffffffffffffffffffff1614159050919050565b600033905090565b816004600083815260200190815260200160002060006101000a81548173ffffffffffffffffffffffffffffffffffffffff021916908373ffffffffffffffffffffffffffffffffffffffff160217905550808273ffffffffffffffffffffffffffffffffffffffff1661113b836108ea565b73ffffffffffffffffffffffffffffffffffffffff167f8c5be1e5ebec7d5bd14f71427d1e84f3dd0314c0f7b2291e5b200ac8c7c3b92560405160405180910390a45050565b600061118c82611054565b6111cb576040517f08c379a00000000000000000000000000000000000000000000000000000000081526004016111c290613128565b60405180910390fd5b60006111d6836108ea565b90508073ffffffffffffffffffffffffffffffffffffffff168473ffffffffffffffffffffffffffffffffffffffff16148061121857506112178185610df4565b5b8061125657508373ffffffffffffffffffffffffffffffffffffffff1661123e8461054e565b73ffffffffffffffffffffffffffffffffffffffff16145b91505092915050565b8273ffffffffffffffffffffffffffffffffffffffff1661127f826108ea565b73ffffffffffffffffffffffffffffffffffffffff16146112d5576040517f08c379a00000000000000000000000000000000000000000000000000000000081526004016112cc906131ba565b60405180910390fd5b600073ffffffffffffffffffffffffffffffffffffffff168273ffffffffffffffffffffffffffffffffffffffff161415611345576040517f08c379a000000000000000000000000000000000000000000000000000000000815260040161133c9061324c565b60405180910390fd5b611350838383611bf1565b61135b6000826110c8565b6001600360008573ffffffffffffffffffffffffffffffffffffffff1673ffffffffffffffffffffffffffffffffffffffff16815260200190815260200160002060008282546113ab919061326c565b925050819055506001600360008473ffffffffffffffffffffffffffffffffffffffff1673ffffffffffffffffffffffffffffffffffffffff168152602001908152602001600020600082825461140291906132a0565b92505081905550816002600083815260200190815260200160002060006101000a81548173ffffffffffffffffffffffffffffffffffffffff021916908373ffffffffffffffffffffffffffffffffffffffff160217905550808273ffffffffffffffffffffffffffffffffffffffff168473ffffffffffffffffffffffffffffffffffffffff167fddf252ad1be2c89b69c2b068fc378daa952ba7f163c4a11628f55a4df523b3ef60405160405180910390a46114c1838383611d05565b505050565b60006114d1826108ea565b90506114df81600084611bf1565b6114ea6000836110c8565b6001600360008373ffffffffffffffffffffffffffffffffffffffff1673ffffffffffffffffffffffffffffffffffffffff168152602001908152602001600020600082825461153a919061326c565b925050819055506002600083815260200190815260200160002060006101000a81549073ffffffffffffffffffffffffffffffffffffffff021916905581600073ffffffffffffffffffffffffffffffffffffffff168273ffffffffffffffffffffffffffffffffffffffff167fddf252ad1be2c89b69c2b068fc378daa952ba7f163c4a11628f55a4df523b3ef60405160405180910390a46115df81600084611d05565b5050565b600081600001549050919050565b600073ffffffffffffffffffffffffffffffffffffffff168273ffffffffffffffffffffffffffffffffffffffff161415611661576040517f08c379a000000000000000000000000000000000000000000000000000000000815260040161165890613342565b60405180910390fd5b61166a81611054565b156116aa576040517f08c379a00000000000000000000000000000000000000000000000000000000081526004016116a1906133ae565b60405180910390fd5b6116b660008383611bf1565b6001600360008473ffffffffffffffffffffffffffffffffffffffff1673ffffffffffffffffffffffffffffffffffffffff168152602001908152602001600020600082825461170691906132a0565b92505081905550816002600083815260200190815260200160002060006101000a81548173ffffffffffffffffffffffffffffffffffffffff021916908373ffffffffffffffffffffffffffffffffffffffff160217905550808273ffffffffffffffffffffffffffffffffffffffff16600073ffffffffffffffffffffffffffffffffffffffff167fddf252ad1be2c89b69c2b068fc378daa952ba7f163c4a11628f55a4df523b3ef60405160405180910390a46117c760008383611d05565b5050565b8173ffffffffffffffffffffffffffffffffffffffff168373ffffffffffffffffffffffffffffffffffffffff16141561183a576040517f08c379a00000000000000000000000000000000000000000000000000000000081526004016118319061341a565b60405180910390fd5b80600560008573ffffffffffffffffffffffffffffffffffffffff1673ffffffffffffffffffffffffffffffffffffffff16815260200190815260200160002060008473ffffffffffffffffffffffffffffffffffffffff1673ffffffffffffffffffffffffffffffffffffffff16815260200190815260200160002060006101000a81548160ff0219169083151502179055508173ffffffffffffffffffffffffffffffffffffffff168373ffffffffffffffffffffffffffffffffffffffff167f17307eab39ab6107e8899845ad3d59bd9653f200f220920489ca2b5937696c318360405161192b9190612317565b60405180910390a3505050565b61194384848461125f565b61194f84848484611d0a565b61198e576040517f08c379a0000000000000000000000000000000000000000000000000000000008152600401611985906134ac565b60405180910390fd5b50505050565b6060600b80546119a3906129e2565b80601f01602080910402602001604051908101604052809291908181526020018280546119cf906129e2565b8015611a1c5780601f106119f157610100808354040283529160200191611a1c565b820191906000526020600020905b8154815290600101906020018083116119ff57829003601f168201915b5050505050905090565b60606000821415611a6e576040518060400160405280600181526020017f30000000000000000000000000000000000000000000000000000000000000008152509050611b82565b600082905060005b60008214611aa0578080611a8990612f94565b915050600a82611a9991906134fb565b9150611a76565b60008167ffffffffffffffff811115611abc57611abb6127c5565b5b6040519080825280601f01601f191660200182016040528015611aee5781602001600182028036833780820191505090505b5090505b60008514611b7b57600182611b07919061326c565b9150600a85611b16919061352c565b6030611b2291906132a0565b60f81b818381518110611b3857611b37612e12565b5b60200101907effffffffffffffffffffffffffffffffffffffffffffffffffffffffffffff1916908160001a905350600a85611b7491906134fb565b9450611af2565b8093505050505b919050565b60007f01ffc9a7000000000000000000000000000000000000000000000000000000007bffffffffffffffffffffffffffffffffffffffffffffffffffffffff1916827bffffffffffffffffffffffffffffffffffffffffffffffffffffffff1916149050919050565b611bfc838383611e92565b600073ffffffffffffffffffffffffffffffffffffffff168373ffffffffffffffffffffffffffffffffffffffff161415611c3f57611c3a81611e97565b611c7e565b8173ffffffffffffffffffffffffffffffffffffffff168373ffffffffffffffffffffffffffffffffffffffff1614611c7d57611c7c8382611ee0565b5b5b600073ffffffffffffffffffffffffffffffffffffffff168273ffffffffffffffffffffffffffffffffffffffff161415611cc157611cbc8161204d565b611d00565b8273ffffffffffffffffffffffffffffffffffffffff168273ffffffffffffffffffffffffffffffffffffffff1614611cff57611cfe828261211e565b5b5b505050565b505050565b6000611d2b8473ffffffffffffffffffffffffffffffffffffffff1661219d565b15611e85578373ffffffffffffffffffffffffffffffffffffffff1663150b7a02611d546110c0565b8786866040518563ffffffff1660e01b8152600401611d7694939291906135b2565b6020604051808303816000875af1925050508015611db257506040513d601f19601f82011682018060405250810190611daf9190613613565b60015b611e35573d8060008114611de2576040519150601f19603f3d011682016040523d82523d6000602084013e611de7565b606091505b50600081511415611e2d576040517f08c379a0000000000000000000000000000000000000000000000000000000008152600401611e24906134ac565b60405180910390fd5b805181602001fd5b63150b7a0260e01b7bffffffffffffffffffffffffffffffffffffffffffffffffffffffff1916817bffffffffffffffffffffffffffffffffffffffffffffffffffffffff191614915050611e8a565b600190505b949350505050565b505050565b6008805490506009600083815260200190815260200160002081905550600881908060018154018082558091505060019003906000526020600020016000909190919091505550565b60006001611eed8461099c565b611ef7919061326c565b9050600060076000848152602001908152602001600020549050818114611fdc576000600660008673ffffffffffffffffffffffffffffffffffffffff1673ffffffffffffffffffffffffffffffffffffffff168152602001908152602001600020600084815260200190815260200160002054905080600660008773ffffffffffffffffffffffffffffffffffffffff1673ffffffffffffffffffffffffffffffffffffffff168152602001908152602001600020600084815260200190815260200160002081905550816007600083815260200190815260200160002081905550505b6007600084815260200190815260200160002060009055600660008573ffffffffffffffffffffffffffffffffffffffff1673ffffffffffffffffffffffffffffffffffffffff16815260200190815260200160002060008381526020019081526020016000206000905550505050565b60006001600880549050612061919061326c565b905060006009600084815260200190815260200160002054905060006008838154811061209157612090612e12565b5b9060005260206000200154905080600883815481106120b3576120b2612e12565b5b90600052602060002001819055508160096000838152602001908152602001600020819055506009600085815260200190815260200160002060009055600880548061210257612101613640565b5b6001900381819060005260206000200160009055905550505050565b60006121298361099c565b905081600660008573ffffffffffffffffffffffffffffffffffffffff1673ffffffffffffffffffffffffffffffffffffffff168152602001908152602001600020600083815260200190815260200160002081905550806007600084815260200190815260200160002081905550505050565b6000808273ffffffffffffffffffffffffffffffffffffffff163b119050919050565b8280546121cc906129e2565b90600052602060002090601f0160209004810192826121ee5760008555612235565b82601f1061220757803560ff1916838001178555612235565b82800160010185558215612235579182015b82811115612234578235825591602001919060010190612219565b5b5090506122429190612246565b5090565b5b8082111561225f576000816000905550600101612247565b5090565b6000604051905090565b600080fd5b600080fd5b60007fffffffff0000000000000000000000000000000000000000000000000000000082169050919050565b6122ac81612277565b81146122b757600080fd5b50565b6000813590506122c9816122a3565b92915050565b6000602082840312156122e5576122e461226d565b5b60006122f3848285016122ba565b91505092915050565b60008115159050919050565b612311816122fc565b82525050565b600060208201905061232c6000830184612308565b92915050565b600081519050919050565b600082825260208201905092915050565b60005b8381101561236c578082015181840152602081019050612351565b8381111561237b576000848401525b50505050565b6000601f19601f8301169050919050565b600061239d82612332565b6123a7818561233d565b93506123b781856020860161234e565b6123c081612381565b840191505092915050565b600060208201905081810360008301526123e58184612392565b905092915050565b6000819050919050565b612400816123ed565b811461240b57600080fd5b50565b60008135905061241d816123f7565b92915050565b6000602082840312156124395761243861226d565b5b60006124478482850161240e565b91505092915050565b600073ffffffffffffffffffffffffffffffffffffffff82169050919050565b600061247b82612450565b9050919050565b61248b81612470565b82525050565b60006020820190506124a66000830184612482565b92915050565b6124b581612470565b81146124c057600080fd5b50565b6000813590506124d2816124ac565b92915050565b600080604083850312156124ef576124ee61226d565b5b60006124fd858286016124c3565b925050602061250e8582860161240e565b9150509250929050565b612521816123ed565b82525050565b600060208201905061253c6000830184612518565b92915050565b60008060006060848603121561255b5761255a61226d565b5b6000612569868287016124c3565b935050602061257a868287016124c3565b925050604061258b8682870161240e565b9150509250925092565b6000602082840312156125ab576125aa61226d565b5b60006125b9848285016124c3565b91505092915050565b600081519050919050565b600082825260208201905092915050565b6000819050602082019050919050565b6125f7816123ed565b82525050565b600061260983836125ee565b60208301905092915050565b6000602082019050919050565b600061262d826125c2565b61263781856125cd565b9350612642836125de565b8060005b8381101561267357815161265a88826125fd565b975061266583612615565b925050600181019050612646565b5085935050505092915050565b6000602082019050818103600083015261269a8184612622565b905092915050565b600080fd5b600080fd5b600080fd5b60008083601f8401126126c7576126c66126a2565b5b8235905067ffffffffffffffff8111156126e4576126e36126a7565b5b602083019150836001820283011115612700576126ff6126ac565b5b9250929050565b6000806020838503121561271e5761271d61226d565b5b600083013567ffffffffffffffff81111561273c5761273b612272565b5b612748858286016126b1565b92509250509250929050565b61275d816122fc565b811461276857600080fd5b50565b60008135905061277a81612754565b92915050565b600080604083850312156127975761279661226d565b5b60006127a5858286016124c3565b92505060206127b68582860161276b565b9150509250929050565b600080fd5b7f4e487b7100000000000000000000000000000000000000000000000000000000600052604160045260246000fd5b6127fd82612381565b810181811067ffffffffffffffff8211171561281c5761281b6127c5565b5b80604052505050565b600061282f612263565b905061283b82826127f4565b919050565b600067ffffffffffffffff82111561285b5761285a6127c5565b5b61286482612381565b9050602081019050919050565b82818337600083830152505050565b600061289361288e84612840565b612825565b9050828152602081018484840111156128af576128ae6127c0565b5b6128ba848285612871565b509392505050565b600082601f8301126128d7576128d66126a2565b5b81356128e7848260208601612880565b91505092915050565b6000806000806080858703121561290a5761290961226d565b5b6000612918878288016124c3565b9450506020612929878288016124c3565b935050604061293a8782880161240e565b925050606085013567ffffffffffffffff81111561295b5761295a612272565b5b612967878288016128c2565b91505092959194509250565b6000806040838503121561298a5761298961226d565b5b6000612998858286016124c3565b92505060206129a9858286016124c3565b9150509250929050565b7f4e487b7100000000000000000000000000000000000000000000000000000000600052602260045260246000fd5b600060028204905060018216806129fa57607f821691505b60208210811415612a0e57612a0d6129b3565b5b50919050565b7f4552433732313a20617070726f76656420717565727920666f72206e6f6e657860008201527f697374656e7420746f6b656e0000000000000000000000000000000000000000602082015250565b6000612a70602c8361233d565b9150612a7b82612a14565b604082019050919050565b60006020820190508181036000830152612a9f81612a63565b9050919050565b7f4552433732313a20617070726f76616c20746f2063757272656e74206f776e6560008201527f7200000000000000000000000000000000000000000000000000000000000000602082015250565b6000612b0260218361233d565b9150612b0d82612aa6565b604082019050919050565b60006020820190508181036000830152612b3181612af5565b9050919050565b7f4552433732313a20617070726f76652063616c6c6572206973206e6f74206f7760008201527f6e6572206e6f7220617070726f76656420666f7220616c6c0000000000000000602082015250565b6000612b9460388361233d565b9150612b9f82612b38565b604082019050919050565b60006020820190508181036000830152612bc381612b87565b9050919050565b7f4552433732313a207472616e736665722063616c6c6572206973206e6f74206f60008201527f776e6572206e6f7220617070726f766564000000000000000000000000000000602082015250565b6000612c2660318361233d565b9150612c3182612bca565b604082019050919050565b60006020820190508181036000830152612c5581612c19565b9050919050565b7f455243373231456e756d657261626c653a206f776e657220696e646578206f7560008201527f74206f6620626f756e6473000000000000000000000000000000000000000000602082015250565b6000612cb8602b8361233d565b9150612cc382612c5c565b604082019050919050565b60006020820190508181036000830152612ce781612cab565b9050919050565b7f43524f574e4e46543a204e6f74206f776e6572206f7220617070726f7665642060008201527f6279206f776e6572000000000000000000000000000000000000000000000000602082015250565b6000612d4a60288361233d565b9150612d5582612cee565b604082019050919050565b60006020820190508181036000830152612d7981612d3d565b9050919050565b7f455243373231456e756d657261626c653a20676c6f62616c20696e646578206f60008201527f7574206f6620626f756e64730000000000000000000000000000000000000000602082015250565b6000612ddc602c8361233d565b9150612de782612d80565b604082019050919050565b60006020820190508181036000830152612e0b81612dcf565b9050919050565b7f4e487b7100000000000000000000000000000000000000000000000000000000600052603260045260246000fd5b7f4552433732313a206f776e657220717565727920666f72206e6f6e657869737460008201527f656e7420746f6b656e0000000000000000000000000000000000000000000000602082015250565b6000612e9d60298361233d565b9150612ea882612e41565b604082019050919050565b60006020820190508181036000830152612ecc81612e90565b9050919050565b7f4552433732313a2062616c616e636520717565727920666f7220746865207a6560008201527f726f206164647265737300000000000000000000000000000000000000000000602082015250565b6000612f2f602a8361233d565b9150612f3a82612ed3565b604082019050919050565b60006020820190508181036000830152612f5e81612f22565b9050919050565b7f4e487b7100000000000000000000000000000000000000000000000000000000600052601160045260246000fd5b6000612f9f826123ed565b91507fffffffffffffffffffffffffffffffffffffffffffffffffffffffffffffffff821415612fd257612fd1612f65565b5b600182019050919050565b7f46697368646f6d4e46543a204f6e6c79206f776e657200000000000000000000600082015250565b600061301360168361233d565b915061301e82612fdd565b602082019050919050565b6000602082019050818103600083015261304281613006565b9050919050565b600081905092915050565b600061305f82612332565b6130698185613049565b935061307981856020860161234e565b80840191505092915050565b60006130918286613054565b915061309d8285613054565b91506130a98284613054565b9150819050949350505050565b7f4552433732313a206f70657261746f7220717565727920666f72206e6f6e657860008201527f697374656e7420746f6b656e0000000000000000000000000000000000000000602082015250565b6000613112602c8361233d565b915061311d826130b6565b604082019050919050565b6000602082019050818103600083015261314181613105565b9050919050565b7f4552433732313a207472616e736665722066726f6d20696e636f72726563742060008201527f6f776e6572000000000000000000000000000000000000000000000000000000602082015250565b60006131a460258361233d565b91506131af82613148565b604082019050919050565b600060208201905081810360008301526131d381613197565b9050919050565b7f4552433732313a207472616e7366657220746f20746865207a65726f2061646460008201527f7265737300000000000000000000000000000000000000000000000000000000602082015250565b600061323660248361233d565b9150613241826131da565b604082019050919050565b6000602082019050818103600083015261326581613229565b9050919050565b6000613277826123ed565b9150613282836123ed565b92508282101561329557613294612f65565b5b828203905092915050565b60006132ab826123ed565b91506132b6836123ed565b9250827fffffffffffffffffffffffffffffffffffffffffffffffffffffffffffffffff038211156132eb576132ea612f65565b5b828201905092915050565b7f4552433732313a206d696e7420746f20746865207a65726f2061646472657373600082015250565b600061332c60208361233d565b9150613337826132f6565b602082019050919050565b6000602082019050818103600083015261335b8161331f565b9050919050565b7f4552433732313a20746f6b656e20616c7265616479206d696e74656400000000600082015250565b6000613398601c8361233d565b91506133a382613362565b602082019050919050565b600060208201905081810360008301526133c78161338b565b9050919050565b7f4552433732313a20617070726f766520746f2063616c6c657200000000000000600082015250565b600061340460198361233d565b915061340f826133ce565b602082019050919050565b60006020820190508181036000830152613433816133f7565b9050919050565b7f4552433732313a207472616e7366657220746f206e6f6e20455243373231526560008201527f63656976657220696d706c656d656e7465720000000000000000000000000000602082015250565b600061349660328361233d565b91506134a18261343a565b604082019050919050565b600060208201905081810360008301526134c581613489565b9050919050565b7f4e487b7100000000000000000000000000000000000000000000000000000000600052601260045260246000fd5b6000613506826123ed565b9150613511836123ed565b925082613521576135206134cc565b5b828204905092915050565b6000613537826123ed565b9150613542836123ed565b925082613552576135516134cc565b5b828206905092915050565b600081519050919050565b600082825260208201905092915050565b60006135848261355d565b61358e8185613568565b935061359e81856020860161234e565b6135a781612381565b840191505092915050565b60006080820190506135c76000830187612482565b6135d46020830186612482565b6135e16040830185612518565b81810360608301526135f38184613579565b905095945050505050565b60008151905061360d816122a3565b92915050565b6000602082840312156136295761362861226d565b5b6000613637848285016135fe565b91505092915050565b7f4e487b7100000000000000000000000000000000000000000000000000000000600052603160045260246000fdfea2646970667358221220733dc78230a009e7ec332625c0961c7ccb5a51b4591497cbf79e3746fb154c8f64736f6c634300080b0033",
  "immutableReferences": {},
  "source": "//SPDX-License-Identifier: MIT\r\npragma solidity ^0.8.0;\r\n\r\nimport \"@openzeppelin/contracts/token/ERC721/extensions/ERC721Enumerable.sol\";\r\nimport \"@openzeppelin/contracts/utils/Counters.sol\";\r\n\r\ncontract FishdomNFT is ERC721Enumerable {\r\n    using Strings for uint256;\r\n    using Counters for Counters.Counter;\r\n\r\n    string private constant _baseExtension = \".json\";\r\n\r\n    Counters.Counter private _tokenCounter;\r\n    string private _baseUri;\r\n    address private _owner;\r\n\r\n    constructor(\r\n        string memory name_,\r\n        string memory symbol_,\r\n        string memory baseUri_\r\n    ) ERC721(name_, symbol_) {\r\n        _baseUri = baseUri_;\r\n        _owner = msg.sender;\r\n        _tokenCounter.increment();\r\n    }\r\n\r\n    // setBaseUri for NFT\r\n    function setBaseUri(string calldata baseUri_) external onlyOwner {\r\n        _baseUri = baseUri_;\r\n    }\r\n\r\n    // Return base for NFT\r\n    function _baseURI() internal view override returns (string memory) {\r\n        return _baseUri;\r\n    }\r\n\r\n    function tokenURI(uint256 tokenId)\r\n        public\r\n        view\r\n        override\r\n        returns (string memory)\r\n    {\r\n        return\r\n            string(\r\n                abi.encodePacked(_baseURI(), tokenId.toString(), _baseExtension)\r\n            );\r\n    }\r\n\r\n    /**\r\n     * @dev Only mint for the owner\r\n     * @param number - the number crown\r\n     */\r\n    function mint(uint256 number) external onlyOwner {\r\n        for (uint256 i = 0; i < number; i++) {\r\n            _mint(msg.sender, _tokenCounter.current());\r\n            _tokenCounter.increment();\r\n        }\r\n    }\r\n\r\n    function burn(uint256 tokenId) public {\r\n        require(\r\n            _isApprovedOrOwner(_msgSender(), tokenId),\r\n            \"CROWNNFT: Not owner or approved by owner\"\r\n        );\r\n        _burn(tokenId);\r\n    }\r\n\r\n    function ownerToTokenArray(address account)\r\n        public\r\n        view\r\n        returns (uint256[] memory)\r\n    {\r\n        uint256[] memory ownerArray = new uint256[](balanceOf(account));\r\n        for (uint256 i = 0; i < balanceOf(account); i++) {\r\n            ownerArray[i] = tokenOfOwnerByIndex(account, i);\r\n        }\r\n        return ownerArray;\r\n    }\r\n\r\n    /**\r\n     * @dev Transfers ownership of the contract to a new account (`newOwner`).\r\n     * Can only be called by the current owner.\r\n     */\r\n    function transferOwnership(address newOwner) public virtual onlyOwner {\r\n        _owner = newOwner;\r\n    }\r\n\r\n    modifier onlyOwner() {\r\n        require(msg.sender == _owner, \"FishdomNFT: Only owner\");\r\n        _;\r\n    }\r\n}\r\n",
  "sourcePath": "C:\\Github\\fishdom_defi_blockchain\\contracts\\FishdomNFT.sol",
  "compiler": {
    "name": "solc",
    "version": "0.8.11+commit.d7f03943.Emscripten.clang"
  },
  "schemaVersion": "3.4.7",
  "updatedAt": "2022-09-01T10:06:17.507Z",
  "networkType": "ethereum",
  "devdoc": {
    "kind": "dev",
    "methods": {
      "approve(address,uint256)": {
        "details": "See {IERC721-approve}."
      },
      "balanceOf(address)": {
        "details": "See {IERC721-balanceOf}."
      },
      "getApproved(uint256)": {
        "details": "See {IERC721-getApproved}."
      },
      "isApprovedForAll(address,address)": {
        "details": "See {IERC721-isApprovedForAll}."
      },
      "mint(uint256)": {
        "details": "Only mint for the owner",
        "params": {
          "number": "- the number crown"
        }
      },
      "name()": {
        "details": "See {IERC721Metadata-name}."
      },
      "ownerOf(uint256)": {
        "details": "See {IERC721-ownerOf}."
      },
      "safeTransferFrom(address,address,uint256)": {
        "details": "See {IERC721-safeTransferFrom}."
      },
      "safeTransferFrom(address,address,uint256,bytes)": {
        "details": "See {IERC721-safeTransferFrom}."
      },
      "setApprovalForAll(address,bool)": {
        "details": "See {IERC721-setApprovalForAll}."
      },
      "supportsInterface(bytes4)": {
        "details": "See {IERC165-supportsInterface}."
      },
      "symbol()": {
        "details": "See {IERC721Metadata-symbol}."
      },
      "tokenByIndex(uint256)": {
        "details": "See {IERC721Enumerable-tokenByIndex}."
      },
      "tokenOfOwnerByIndex(address,uint256)": {
        "details": "See {IERC721Enumerable-tokenOfOwnerByIndex}."
      },
      "tokenURI(uint256)": {
        "details": "See {IERC721Metadata-tokenURI}."
      },
      "totalSupply()": {
        "details": "See {IERC721Enumerable-totalSupply}."
      },
      "transferFrom(address,address,uint256)": {
        "details": "See {IERC721-transferFrom}."
      },
      "transferOwnership(address)": {
        "details": "Transfers ownership of the contract to a new account (`newOwner`). Can only be called by the current owner."
      }
    },
    "version": 1
  },
  "userdoc": {
    "kind": "user",
    "methods": {},
    "version": 1
  }
}